:100000000C942A000C944C000C9447000C9447006C
:100010000C9447000C9447000C9447000C94470044
:100020000C9447000C9447000C9447000C94A600D5
:100030000C9447000C9447000C9447000C94470024
:100040000C9473000C9447000C9447000C944700E8
:100050000C94470011241FBECFE5D8E0DEBFCDBF12
:1000600010E0A0E6B0E0EAEDF2E002C005900D92EB
:10007000A838B107D9F720E0A8E8B0E001C01D9288
:10008000A739B207E1F70E9449000C946B010C9468
:1000900000000E94E700FFCF1F920F920FB60F9251
:1000A00011242F933F934F935F936F937F938F937D
:1000B0009F93AF93BF93EF93FF93E0919100F091E3
:1000C00092000995FF91EF91BF91AF919F918F9110
:1000D0007F916F915F914F913F912F910F900FBE44
:1000E0000F901F9018951F920F920FB60F92112428
:1000F0002F933F934F935F938F939F93AF93BF93B0
:1001000044B155B124EF31E0429FC001439F900DAF
:10011000529F900D1124892F992786958695A0E0EE
:10012000B0E08093930090939400A0939500B093D7
:100130009600BF91AF919F918F915F914F913F91A9
:100140002F910F900FBE0F901F9018951F920F9236
:100150000FB60F9211242F933F934F935F936F939A
:100160007F938F939F93AF93BF93EF93FF93809170
:1001700090008F5F8093900090E0A0E0B0E040910D
:100180008C0050918D0060918E0070918F008417CB
:100190009507A607B70751F4E0919100F0919200FE
:1001A0000995109290008091880082BFFF91EF9195
:1001B000BF91AF919F918F917F916F915F914F917F
:1001C0003F912F910F900FBE0F901F90189590E0C8
:1001D0007EC0E92FF0E0EE0FFF1FE05AFF4F808155
:1001E000282F269526952695877031813323B9F1DE
:1001F000313009F06BC0213089F028F02230C9F08D
:10020000233011F163C04AB321E030E002C0220F75
:10021000331F8A95E2F7242B2ABB58C047B321E04D
:1002200030E002C0220F331F8A95E2F7242B27BB50
:100230004DC044B321E030E002C0220F331F8A9545
:10024000E2F7242B24BB42C041B321E030E002C0DE
:10025000220F331F8A95E2F7242B21BB37C02130B0
:1002600091F028F02230D9F0233029F12FC04AB381
:1002700021E030E002C0220F331F8A95E2F720957B
:1002800024232ABB23C047B321E030E002C0220F61
:10029000331F8A95E2F72095242327BB17C044B368
:1002A00021E030E002C0220F331F8A95E2F720954B
:1002B000242324BB0BC041B321E030E002C0220F55
:1002C000331F8A95E2F72095242321BB9F5F943149
:0A02D00008F47FCF0895F894FFCFE3
:1002DA0001010201030104010501060110010801DF
:1002EA0009010A010B0100000000000000000000E3
:0802FA000000000000000000FC
:00000001FF
