S01700005371756164204231202D20434F54532E73726563D6
S11300000C942A000C94F4020C9447000C944700BE
S11300100C9447000C9447000C94B2030C946603B0
S11300200C9447000C948D030C9447000C94250306
S11300300C9447000C9447000C9447000C9427043C
S11300400C941B030C9447000C9447000C94470039
S11300500C94470011241FBECFE5D8E0DEBFCDBF0E
S113006010E0A0E6B0E0E6E0FDE002C005900D92ED
S1130070A838B107D9F720E0A8E8B0E001C01D9284
S1130080A93AB207E1F70E9449000C9481060C9446
S113009000000E943B0481E00E94E8020E94770273
S11300A00E948A020E94C9000E94BB010E94CA01E8
S11300B06B017C0181E00E94BF04C114D104E104FE
S11300C0F10491F364E080E00E94A301C701B6014A
S11300D00E943D01E9CFCF93C82F60E081E00E94E8
S11300E0DD0160E082E00E94DD01C4FB662760F967
S11300F083E00E94DD01C5FB662760F984E00E946D
S1130100DD01C6FB662760F985E00E94DD016C2FE6
S1130110661F6627661F86E00E94DD0161E082E0BB
S11301200E94DD018FE99FE00197F1F700C0000014
S113013060E082E00E94DD016C2F617083E00E9428
S1130140DD01C1FB662760F984E00E94DD01C2FB8A
S1130150662760F985E00E94DD01C3FB662760F92C
S113016086E00E94DD0161E082E00E94DD018FE90A
S11301709FE00197F1F700C0000060E082E00E9478
S1130180DD018FE19EE40197F1F700C00000CF91FB
S1130190089583E30E946B0082E30E946B0088E26F
S11301A00E946B008CE00E946B0081E00E946B0057
S11301B086E00E946B0082E00E946B000895CF935A
S11301C0C82F61E081E00E94DD0160E082E00E94CE
S11301D0DD01C4FB662760F983E00E94DD01C5FBF5
S11301E0662760F984E00E94DD01C6FB662760F99A
S11301F085E00E94DD016C2F661F6627661F86E07E
S11302000E94DD0161E082E00E94DD018FE99FE050
S11302100197F1F700C0000060E082E00E94DD0178
S11302206C2F617083E00E94DD01C1FB662760F9D9
S113023084E00E94DD01C2FB662760F985E00E942C
S1130240DD01C3FB662760F986E00E94DD0161E001
S113025082E00E94DD018FE99FE00197F1F700C081
S1130260000060E082E00E94DD018FE19EE40197DE
S1130270F1F700C00000CF9108958F929F92AF9242
S1130280BF92CF92DF92EF92FF926B017C01992390
S11302905CF4F094E094D094C094C11CD11CE11C93
S11302A0F11C8DE20E94DF0061E070E080E090E0EC
S11302B024C0DC01CB01880F991FAA1FBB1F4C016E
S11302C05D01880C991CAA1CBB1C880C991CAA1CD7
S11302D0BB1C880E991EAA1EBB1EC701B6012AE0CC
S11302E030E040E050E00E946206680D791D8A1DEE
S11302F09B1DC22ED32EE42EF52EC114D104E1048D
S1130300F104B9F612C02AE030E040E050E00E9467
S11303104006C22ED32EE42EF52E80E3860F0E94D3
S1130320DF006C2D7D2D8E2D9F2D61307105810593
S1130330910549F7FF90EF90DF90CF90BF90AF9079
S11303409F908F900895CF93DF9300D0CDB7DEB701
S113035090E8998390EC9A83E1E0F0E0EC0FFD1FC4
S1130360E80FF11D8081860F0E946B000F900F90A3
S1130370DF91CF91089561E08CE10E94DD018FE36C
S11303809CE90197F1F700C0000060E08CE10E9455
S1130390DD0108950E9493020E94450526E933E495
S11303A04BE05DE30E94AB0520E030E040E05FE31A
S11303B00E94AB050E9416050895982F9695969570
S11303C096958770662309F43FC0613009F07BC0BD
S11303D0913099F028F09230E9F0933041F108958A
S11303E04BB321E030E0B90102C0660F771F8A9554
S11303F0E2F7CB01842B8BBB089548B321E030E0B6
S1130400B90102C0660F771F8A95E2F7CB01842BEE
S113041088BB089545B321E030E0B90102C0660FFE
S1130420771F8A95E2F7CB01842B85BB089542B3ED
S113043021E030E0B90102C0660F771F8A95E2F728
S1130440CB01842B82BB08959130A1F028F0923027
S1130450F9F0933059F108954BB321E030E0B9013C
S113046002C0660F771F8A95E2F7CB01809584233B
S11304708BBB089548B321E030E0B90102C0660F98
S1130480771F8A95E2F7CB018095842388BB089572
S113049045B321E030E0B90102C0660F771F8A95A9
S11304A0E2F7CB018095842385BB089542B321E014
S11304B030E0B90102C0660F771F8A95E2F7CB01DD
S11304C08095842382BB0895869586958695813090
S11304D041F028F0823039F0833039F008956BBB55
S11304E0089568BB089565BB089562BB08958FB5F0
S11304F08E7F8FBD8FB58D7F8FBD8EB588608EBD8D
S11305008EB58F7E8EBD89B7806189BF8EB58560BB
S11305108EBD089517BC16BC8EB580648EBD89B798
S1130520806289BF08958091940090919500A09174
S11305309600B09197000297A105B10509F03FC05C
S11305408091980090919900A0919A00B0919B009D
S113055040919C0050919D0060919E0070919F007D
S1130560841B950BA60BB70B880F991FAA1FBB1FE3
S1130570880F991FAA1FBB1F880F991FAA1FBB1F93
S1130580880F991FAA1FBB1F880F991FAA1FBB1F83
S1130590880F991FAA1FBB1F80939000909391000E
S11305A0A0939200B093930010929400109295003F
S11305B0109296001092970089B7806289BF60916B
S11305C09000709191008091920090919300089511
S11305D0882331F0813039F48FB780688FBF089554
S11305E08FB78F778FBF08951F920F920FB60F9218
S11305F011242F933F934F935F936F937F938F9324
S11306009F93AF93BF93EF93FF93E091A100F09179
S1130610A2000995FF91EF91BF91AF919F918F91A6
S11306207F916F915F914F913F912F910F900FBEEA
S11306300F901F9018951F920F920FB60F921124CE
S11306400F900FBE0F901F9018951F920F920FB628
S11306500F9211242F933F934F935F936F937F9344
S11306608F939F93AF93BF93EF93FF938091A000D9
S11306708F5F8093A00090E0A0E0B0E040918C00F8
S113068050918D0060918E0070918F0084179507B2
S1130690A607B70751F4E091A100F091A2000995D3
S11306A01092A0008091880082BFFF91EF91BF91CA
S11306B0AF919F918F917F916F915F914F913F91F6
S11306C02F910F900FBE0F901F9018951F920F92AD
S11306D00FB60F9211242F933F934F935F936F9311
S11306E07F938F939F93AF93BF93EF93FF93E09187
S11306F0A100F091A2000995FF91EF91BF91AF91F4
S11307009F918F917F916F915F914F913F912F9125
S11307100F900FBE0F901F9018951F920F920FB657
S11307200F9211248F939F93AF93BF938091A50051
S11307309091A600A091A700B091A8000196A11DD8
S1130740B11D8093A5009093A600A093A700B09339
S1130750A800BF91AF919F918F910F900FBE0F9002
S11307601F9018951F920F920FB60F9211242F937A
S11307703F938F939F93AF93BF93809194009091F5
S11307809500A0919600B09197000196A11DB11D0E
S11307908093940090939500A0939600B093970053
S11307A08091940090919500A0919600B09197004B
S11307B00197A105B105C1F486B597B5A0E0B0E0F5
S11307C080939C0090939D00A0939E00B0939F0003
S11307D01092A5001092A6001092A7001092A800F3
S11307E08EB58F7B8EBD28C080919400909195002A
S11307F0A0919600B09197000297A105B105E1F48C
S113080026B537B58091A5009091A600A091A700C8
S1130810B091A800DC0199278827820F931FA11D9E
S1130820B11D8093980090939900A0939A00B0937F
S11308309B008EB580648EBDBF91AF919F918F91C7
S11308403F912F910F900FBE0F901F9018951F92FC
S11308500F920FB60F9211248F938091A3008F5F94
S11308608093A30081E08093A4008F910F900FBE2A
S11308700F901F90189590E07EC0E92FF0E0EE0FE6
S1130880FF1FE05AFF4F8081282F26952695269535
S1130890877031813323B9F1313009F06BC02130D5
S11308A089F028F02230C9F0233011F163C04AB333
S11308B021E030E002C0220F331F8A95E2F7242B97
S11308C02ABB58C047B321E030E002C0220F331FD7
S11308D08A95E2F7242B27BB4DC044B321E030E0D6
S11308E002C0220F331F8A95E2F7242B24BB42C097
S11308F041B321E030E002C0220F331F8A95E2F7B2
S1130900242B21BB37C0213091F028F02230D9F0BC
S1130910233029F12FC04AB321E030E002C0220F76
S1130920331F8A95E2F7209524232ABB23C047B3BB
S113093021E030E002C0220F331F8A95E2F72095B0
S1130940242327BB17C044B321E030E002C0220FA8
S1130950331F8A95E2F72095242324BB0BC041B3AF
S113096021E030E002C0220F331F8A95E2F7209580
S1130970242321BB9F5F943108F47FCF08958823FB
S113098061F1813009F051C069E088E00E9464029D
S11309908FE19EE40197F1F700C0000063E088E076
S11309A00E9464028FE19EE40197F1F700C0000009
S11309B066E088E00E9464028FE19EE40197F1F70B
S11309C000C000006CE088E00E9464028FE19EE4B5
S11309D00197F1F700C0000008956CE088E00E94E0
S11309E064028FE39FE10197F1F700C0000066E025
S11309F088E00E9464028FE39FE10197F1F700C051
S1130A00000063E088E00E9464028FE39FE10197A5
S1130A10F1F700C0000069E088E00E9464028FE3FF
S1130A209FE10197F1F700C0000008950E948A0534
S1130A3088F09F5798F0B92F9927B751B0F0E1F09B
S1130A40660F771F881F991F1AF0BA95C9F714C04B
S1130A50B13091F00E94A405B1E008950C94A4056E
S1130A60672F782F8827B85F39F0B93FCCF3869584
S1130A7077956795B395D9F73EF4909580957095E1
S1130A8061957F4F8F4F9F4F0895E89409C097FB5E
S1130A903EF490958095709561957F4F8F4F9F4F51
S1130AA09923A9F0F92F96E9BB279395F695879595
S1130AB077956795B795F111F8CFFAF4BB0F11F458
S1130AC060FF1BC06F5F7F4F8F4F9F4F16C08823FF
S1130AD011F096E911C0772321F09EE8872F762F35
S1130AE005C0662371F096E8862F70E060E02AF076
S1130AF09A95660F771F881FDAF7880F9695879562
S1130B0097F9089557FD9058440F551F59F05F3FCA
S1130B1071F04795880F97FB991F61F09F3F79F01B
S1130B2087950895121613061406551FF2CF46959D
S1130B30F1DF08C0161617061806991FF1CF86951F
S1130B407105610508940895E894BB276627772703
S1130B50CB0197F908950E94BE050C942F060E94BC
S1130B60210638F00E94280620F0952311F00C94F9
S1130B7018060C941E0611240C94A5050E948205E7
S1130B8070F3959FC1F3950F50E0551F629FF001DC
S1130B90729FBB27F00DB11D639FAA27F00DB11DF5
S1130BA0AA1F649F6627B00DA11D661F829F22277E
S1130BB0B00DA11D621F739FB00DA11D621F839F05
S1130BC0A00D611D221F749F3327A00D611D231FDB
S1130BD0849F600D211D822F762F6A2F11249F5729
S1130BE050409AF0F1F088234AF0EE0FFF1FBB1F2C
S1130BF0661F771F881F91505040A9F79E3F5105EB
S1130C0080F00C9418060C94A5055F3FE4F3983E1D
S1130C10D4F3869577956795B795F795E7959F5F94
S1130C20C1F7FE2B880F911D9695879597F9089526
S1130C3097F99F6780E870E060E008959FEF80EC8B
S1130C40089500240A94161617061806090608952E
S1130C5000240A9412161306140605060895092E94
S1130C600394000C11F4882352F0BB0F40F4BF2B03
S1130C7011F460FF04C06F5F7F4F8F4F9F4F089543
S1130C80A1E21A2EAA1BBB1BFD010DC0AA1FBB1F8C
S1130C90EE1FFF1FA217B307E407F50720F0A21BFE
S1130CA0B30BE40BF50B661F771F881F991F1A946B
S1130CB069F760957095809590959B01AC01BD0195
S1130CC0CF010895052E97FB1EF400940E94790627
S1130CD057FD07D00E94400607FC03D04EF40C9445
S1130CE0790650954095309521953F4F4F4F5F4F72
S1130CF0089590958095709561957F4F8F4F9F4F84
S1090D000895F894FFCFF2
S1130D060101020103010401050106011C011E0083
S1130D16080109010A010B0100000000000000009F
S10B0D260000000000000000C1
S9030000FC
